:020000040802F0
:10000000108300207142040855470408574704082C
:10001000594704085B4704085D47040800000000D6
:10002000000000000000000000000000F53E030892
:100030005F470408000000009D3E0308C7C4020893
:10004000654B0408694B04086D4B0408714B0408A8
:10005000754B0408794B04087D4B0408814B040858
:10006000854B0408894B04088D4B0408914B040808
:10007000954B0408994B04089D4B0408A14B0408B8
:10008000A54B0408A94B0408AD4B0408B14B040868
:10009000B54B0408B94B0408BD4B0408C14B040818
:1000A000C91E0308C54B0408C94B0408CD4B0408FE
:1000B00021F6020849F60208D14B0408D54B040882
:1000C000D94B0408DD4B0408E14B0408E54B040858
:1000D000E94B040819E10208ED4B040875E9020830
:1000E000F14B0408F54B0408F94B040871F60208BB
:1000F00099F60208FD4B0408014C0408054C04085D
:10010000094C04080D4C0408FBDA0308114C0408E0
:10011000154C0408194C04081D4C040889540208A5
:100120008F4A0208214C0408254C0408294C040875
:100130002D4C0408314C0408354C0408394C040893
:100140003D4C0408414C0408454C0408494C040843
:100150004D4C0408514C0408554C0408594C0408F3
:100160005D4C0408614C0408654C0408694C0408A3
:100170006D4C0408714C0408754C0408794C040853
:100180007D4C0408814C0408854C0408894C040803
:100190008D4C0408914C0408954C0408994C0408B3
:1001A00000000000000000009D4C040838B5040069
:1001B0000D002900200003F09FFA002801D1012042
:1001C00000E00020C0B232BDF8B50020039000204E
:1001D0000290DFF8A40901900420009000234FF45E
:1001E0008072DFF898190FF20D0003F0C7FA05B01E
:1001F00000BD000010B50400002003F0A4FBDFF8F0
:10020000800900880121B0FBF1F003F060FBDFF80A
:1002100074090078002804D0012805D0032806D0EE
:10022000EDE704F0CFFBEAE704F054FFE7E705F061
:100230003CF9E4E738B504000D00DFF84C196868B4
:10024000FFF7B4FF00281DD0A868002814D0A868C4
:1002500005F063FA0A280FDBA86805F05EFADFF8FC
:10026000201908800320DFF81C190870DFF808093E
:10027000006803F0EFFB2EE0A968DFF8100905F035
:10028000A4FC28E0DFF808196868FFF78FFF002852
:1002900005D0DFF8E408006803F055FB1BE0686850
:1002A00000280CD0DFF8EC186868FFF77FFF002803
:1002B00005D13FA16868FFF779FF00280BD0DFF870
:1002C000D80805F082FCDFF8D40805F07EFCDFF8E2
:1002D000D00805F07AFC002032BD70B504000D0096
:1002E0000026DFF8C0186868FFF760FF002809D013
:1002F00005F06DFE06003100C9B2DFF8AC0805F06C
:1003000064FC17E0686800280CD0DFF8881868687B
:10031000FFF74CFF002805D125A16868FFF746FFCD
:10032000002807D0DFF8840805F04FFCDFF88008CC
:1003300005F04BFC70BDF8B504000D00686800289E
:100340001CD0A868002814D0E868002811D0E868FC
:1003500005F0E3F90600A86805F0DFF90700686812
:1003600005F0DBF9320092B2390089B205F0ABFE3C
:100370001CE0DFF8400805F028FC17E0686800285A
:100380000CD0DFF810186868FFF710FF002805D1BF
:1003900007A16868FFF70AFF002807D0DFF81808F0
:1003A00005F013FCDFF86C0C05F00FFC0020F2BD2B
:1003B0003F00000070B588B004000D00DFF8FC17A6
:1003C0006868FFF7F3FE002802D005F03EFFCFE09B
:1003D000DFF8EC176868FFF7E9FE00281CD0A86872
:1003E000002814D0E868002811D0286900280ED011
:1003F000286905F092F90600E86805F08EF93200E8
:1004000092B2010089B2A86805F041FFB0E0DFF8C0
:10041000A40705F0DAFBABE0DFF8A8176868FFF780
:10042000C5FE00280ED0A868002806D0A86805F0F0
:1004300074F980B205F0D6FF9AE0DFF8780705F08E
:10044000C4FB95E0DFF880176868FFF7AFFE00286F
:100450002FD0A868002827D0E868002824D0684654
:100460001E2106F063F8E86805F057F90600A86851
:1004700005F053F96A46310006F08AF83EA005F00F
:10048000A4FB0026E86805F048F9864207DA6846CA
:10049000815DDFF8380705F098FB761CF2E76946C6
:1004A00036A005F092FB63E0DFF8080705F08DFB4E
:1004B0005EE0DFF81C176868FFF778FE002807D0B9
:1004C00006F003F880B201002DA005F07EFB4FE09E
:1004D000DFF800176868FFF769FE002808D005F00C
:1004E000F0FF0600310049B225A005F06EFB3FE0A9
:1004F000DFF8E4166868FFF759FE002802D005F01F
:10050000DCFF35E0686800280CD0DFF888166868E2
:10051000FFF74CFE002805D188A16868FFF746FE6A
:10052000002820D0DFF8B40605F04FFBDFF8B00656
:1005300005F04BFBDFF8AC0605F047FBDFF8A8063B
:1005400005F043FBDFF8A40605F03FFBDFF8A0064B
:1005500005F03BFBDFF89C0605F037FBDFF898065B
:1005600005F033FB04E06968DFF8600B05F02DFB54
:10057000002008B070BD00000A0000000A257300CA
:1005800025640A0070B588B004000D00DFF8901AE9
:100590006868FFF70BFE002821D0A868002819D052
:1005A000E868002816D02869002813D0E86805F00C
:1005B000B4F80600A86805F0B0F82A69310006F022
:1005C000CCF9A86805F0A9F80100DFF8580A05F091
:1005D000FCFAB0E0DFF8DC0505F0F7FAABE0DFF895
:1005E000E0156868FFF7E2FD002821D0A868002820
:1005F00019D0E868002816D02869002813D0E868C8
:1006000005F08BF80600A86805F087F82A69310024
:1006100006F01EFAA86805F080F80100DFF8040A69
:1006200005F0D3FA87E0DFF88C0505F0CEFA82E01A
:10063000DFF894156868FFF7B9FD002834D0A86882
:1006400000282CD0E868002829D068461E2105F033
:100650006DFFE86805F061F80600A86805F05DF830
:100660006A46310006F062F9A86805F056F8010004
:10067000DFF8600A05F0A9FA0026E86805F04DF8F1
:10068000864207DA6846815DDFF8400505F09DFA8D
:10069000761CF2E769466FA005F097FA4BE0DFF8A9
:1006A000140505F092FA46E0DFF810156868FFF7C8
:1006B0007DFD002815D0A86800280DD0A86805F099
:1006C0002CF806F022F9A86805F027F80100DFF8F9
:1006D000080A05F07AFA2EE0DFF8D80405F075FA7A
:1006E00029E0686800280CD0DFF8A8146868FFF7D4
:1006F0005DFD002805D111A16868FFF757FD0028AE
:1007000014D0DFF8D80905F060FADFF8D40905F055
:100710005CFADFF8D00905F058FADFF8CC0905F0EB
:1007200054FADFF8C80905F050FA04E06968DFF808
:100730009C0905F04AFA002008B070BD3F00000097
:1007400038B504000D0006F098FA08F0D6FA06F065
:100750000DFB002802D1002008F0BCFD08F0A7FE28
:1007600009F0DEFA04F040FB002032BD38B52DED73
:10077000028B04000D0089A16868FFF717FD0028AF
:1007800014D0A86800280CD0A86809F0AAFB51EC86
:10079000100B09F0ABFB00EE100A002008F00CFC77
:1007A00041E0DFF8100405F010FA3CE07CA1686835
:1007B000FFF7FCFC002814D0002008F039FBB0EE55
:1007C000408A0021DFF8580A05F0FFF90821B0EE51
:1007D000480A012004F0D2FDDFF8480A05F0F5F9D7
:1007E00021E0686800280CD0DFF8A8136868FFF7DC
:1007F000DDFC002805D16BA16868FFF7D7FC002855
:100800000CD0DFF8240A05F0E0F9DFF8200A05F043
:10081000DCF9DFF81C0A05F0D8F904E06968DFF8B4
:10082000AC0805F0D2F90020BDEC028B32BD38B522
:1008300004000D0006F09AFA002804D1DFF8740ACB
:1008400005F0C3F903E0DFF88C0B05F0BEF90020DA
:1008500032BD00000A2573007CB504000D0050A1D4
:100860006868FFF7A3FC00281ED0684608F01EF851
:100870009DF80010DFF8840A05F0A7F90026300083
:100880009DF80010C0B2884280F085806846310033
:10089000C9B200EB410042883100C9B2DFF8600AFA
:1008A00005F093F9761CEAE7B7496868FFF77EFC24
:1008B000002818D0A868002811D0A86804F02DFFDF
:1008C0000A280CDB0020AF490870A86804F025FF57
:1008D000AB490880A848006803F0BCF85BE0B54865
:1008E00005F073F957E0AA496868FFF75FFC002834
:1008F00004D0A148006803F026F84CE0DFF8041AA1
:100900006868FFF753FC00281CD0A868002815D0A1
:10091000A86809F0E6FA51EC100B0022002309F058
:1009200019FB0BD8A86809F0DCFA51EC100B09F0A0
:10093000DDFA00EE100A08F043F82CE09D4805F0BF
:1009400044F928E0686800280BD092496868FFF7EE
:100950002DFC002805D113A16868FFF727FC0028AB
:1009600014D0DFF8740A05F030F9DFF8700A05F0EA
:100970002CF9DFF86C0A05F028F9DFF8680A05F0B1
:1009800024F9DFF8640A05F020F904E06968DFF86B
:100990003C0705F01AF9002076BD0000736574006D
:1009A000676574003F0000002DE9F0418AB0040043
:1009B0000D0014260027E8463A003100404609F0B1
:1009C000E1FA69A16868FFF7F1FB002839D005A8B2
:1009D00006F086FA684605A9142209F017FB9DF86F
:1009E0000010DFF8080A05F0F0F800263000C0B269
:1009F000022880F2B4803100C9B2491CDFF8F00946
:100A000005F0E3F8022168463200D2B200EBC200E2
:100A100090ED010A012004F0B1FCDFF8D80905F0DF
:100A2000D4F8022168463200D2B200EBC20090ED49
:100A3000020A012004F0A2FC4CA005F0C6F8761CC6
:100A4000D4E74BA16868FFF7B1FB002865D0A86820
:100A500000285ED0A86804F060FE8DF800009DF8C4
:100A6000000000284FD09DF8000003284BDA002634
:100A700030009DF80010C0B2884235D23000C0B2BC
:100A8000400005EB8000C06800282DD03000C0B2C7
:100A9000400005EB80000069002825D03000C0B27E
:100AA000400005EB8000C06809F01BFA51EC100B08
:100AB00009F01CFA69463200D2B201EBC20148606B
:100AC0003000C0B2400005EB8000006909F009FA6F
:100AD00051EC100B09F00AFA69463200D2B201EB70
:100AE000C2018860761CC3E730009DF80010C0B2D8
:100AF000884203D1684606F07BF930E0DFF8F80859
:100B000005F063F82BE00221DFF8F00805F05DF84E
:100B100025E0284805F059F821E0686800280BD046
:100B20001C496868FFF742FB002805D111A16868DD
:100B3000FFF73CFB00280DD0DFF8800A05F045F8F0
:100B4000DFF87C0A05F041F80221DFF8780A05F0A9
:100B50003CF804E06968DFF8740505F036F8002019
:100B60000AB0BDE8F081000067657400206D6C007C
:100B7000736574003F000000647D00204C4304084E
:100B8000C07E0020E87E00200C480408503804088D
:100B9000144804089447040880180408A829040885
:100BA000C42904081C48040864380408A41804086C
:100BB000C8180408103D04089421040824480408B7
:100BC0002C480408344804083C48040844480408F5
:100BD0004C480408544804085C480408E029040808
:100BE000203D0408EC1804081019040834190408FE
:100BF000581904087C190408A01904082DE9F843C1
:100C00002DED048B04000D00DFF8BC196868FFF7B8
:100C1000CDFA002800F0BC805FF00008A86800282A
:100C200000F0B180E868002800F0AD802869002855
:100C300000F0A9806869002800F0A580DFF84C1A50
:100C4000A868FFF7B3FA002805D1C0A1A868FFF78C
:100C5000ADFA002804D0012080460020070010E0F3
:100C6000DFF82C1AA868FFF7A1FA002805D1B8A16F
:100C7000A868FFF79BFA002803D0012080460120D6
:100C800007004046C0B2012877D15FF00009DFF8C5
:100C9000041AE868FFF78AFA002805D1ADA1E868D0
:100CA000FFF784FA002804D00020060001208146C6
:100CB00034E0DFF8E419E868FFF778FA002805D196
:100CC000A5A1E868FFF772FA002804D00220060008
:100CD0000120814622E0DFF8C419E868FFF766FAD0
:100CE000002805D19AA1E868FFF760FA002804D02F
:100CF000012006000120814610E0DFF8A419E86811
:100D0000FFF754FA002805D1C1A1E868FFF74EFAB1
:100D1000002803D003200600012081464846C0B2C7
:100D2000012824D1686909F0DCF8B0EE408AF0EEC1
:100D3000608A286909F0D5F8B0EE409AF0EE609A22
:100D400051EC180B09F0D2F800EE900AB0EE608A70
:100D500051EC190B09F0CAF800EE100AF0EE480A3F
:100D60003100C9B23800C0B206F0A6F94BE1E9681B
:100D7000DFF8580304F029FF45E1A968DFF84C03C8
:100D800004F023FF3FE1DFF81C0904F01EFF3AE105
:100D9000DFF814196868FFF709FA002802D006F096
:100DA000E7FA30E1DFF804196868FFF7FFF9002877
:100DB0002FD099A1A868FFF7F9F9002813D0E868A7
:100DC00000280BD0E86809F08CF851EC100B09F002
:100DD0008DF800EE100A05F058FF14E1DFF8C408A2
:100DE00004F0F3FE0FE18DA1A868FFF7DFF90028FA
:100DF00000F00981DFF8480A04F0E7FE05F08EFFF5
:100E00000621012004F0BAFADFF8380A04F0DDFE0A
:100E1000F9E0DFF8341A6868FFF7C8F900281ED037
:100E20007DA1A868FFF7C2F900280ED0E868002865
:100E300006D0E86804F071FC80B207F031FEE2E011
:100E4000DFF8600804F0C1FEDDE074A1A868FFF7D8
:100E5000ADF9002800F0D78007F046FED3E0DFF8B8
:100E6000EC196868FFF7A2F9002824D06AA1A868E5
:100E7000FFF79CF900280ED0E868002806D0E86843
:100E800004F04BFC80B207F072FEBCE0DFF81408FF
:100E900004F09BFEB7E061A1A868FFF787F900287E
:100EA00000F0B18007F072FE06003100DFF8A00903
:100EB00004F08BFEA7E0DFF89C196868FFF776F96D
:100EC00000281ED054A1A868FFF770F900280ED0A2
:100ED000E868002806D0E86804F01FFC80B207F03C
:100EE0001DFE90E0DFF8BC0704F06FFE8BE04BA125
:100EF000A868FFF75BF9002800F0858007F001FE85
:100F000081E0DFF8181A6868FFF750F9002825D04B
:100F100041A1A868FFF74AF900280ED0E868002828
:100F200006D0E86804F0F9FB80B207F012FE6AE030
:100F3000DFF8700704F049FE65E038A1A868FFF704
:100F400035F900285FD007F0F7FD5CE06500000090
:100F50006400000061000000730000006868002861
:100F60000CD0DFF8BC196868FFF720F9002805D11C
:100F700057A16868FFF71AF9002840D0DFF8A409E4
:100F800004F023FEDFF8A00904F01FFEDFF89C093F
:100F900004F01BFEDFF8980904F017FEDFF894094F
:100FA00004F013FE0A2004F0D0F9DFF88C0904F0F5
:100FB0000CFEDFF8880904F008FE0A2004F0C5F9E9
:100FC000DFF87C0904F001FEDFF8780904F0FDFD8C
:100FD0000A2004F0BAF9DFF8700904F0F6FDDFF832
:100FE0006C0904F0F2FDDFF8680904F0EEFDDFF8AB
:100FF000640904F0EAFD052004F0A7F903E069683C
:10100000324804F0E2FD0020BDEC048BBDE8F28321
:1010100072000000F81204087365740067657400BC
:10102000584304088C38040838B504000D007BA12F
:101030006868FFF7BBF800280ED0A868002806D023
:10104000A86804F06AFBC0B207F0DCFC3CE0DFF803
:10105000540604F0BAFD37E095A16868FFF7A6F8DA
:1010600000280ED0A868002806D0A86804F055FB18
:10107000C0B207F0CEFC27E0DFF8280604F0A5FD9B
:1010800022E0686800280CD0DFF894186868FFF741
:101090008DF8002805D10EA16868FFF787F80028B1
:1010A0000ED0DFF8380A04F090FD0221DFF8300A94
:1010B00004F08BFD0221DFF82C0A04F086FD03E02A
:1010C0006968024804F081FD002032BD78380408C8
:1010D0003F000000303D0408403D0408B4210408EE
:1010E000080C0408340C0408600C04088C0C040878
:1010F00070B504000D007FA16868FFF757F800285D
:101100000DD0A868002805D0A86804F006FB08F0F8
:10111000E1F880E0DFF8D40904F057FD7BE0DFF868
:10112000D0196868FFF742F8002816D0A868002890
:101130000ED0A86804F0F1FA012809DBA86804F0D1
:10114000ECFA01000120491E884008F0C3F862E073
:10115000DFF8980904F039FD5DE0DFF89819686858
:10116000FFF724F8002803D0002008F0B3F852E07D
:1011700061A16868FFF71AF8002808D008F0E3F8C2
:1011800006003100DFF8700904F01FFD43E0DFF8CE
:101190006C196868FFF70AF8002808D008F098F87A
:1011A00080B20100DFF8580904F00FFD33E06868F1
:1011B00000280CD0DFF868176868FEF7F7FF0028F2
:1011C00005D183A16868FEF7F1FF00281ED0DFF883
:1011D000340904F0FAFCDFF83019DFF8300904F0C4
:1011E000F4FC08F075F880B20100DFF8240904F07F
:1011F000ECFCDFF8200904F0E8FCDFF81C0904F03F
:10120000E4FCDFF8180904F0E0FC04E06968DFF8AA
:101210005C0B04F0DAFC002070BD00006F6E000073
:10122000503D040864430408C419040880E7030817
:1012300020EA030870B504000D006868002818D083
:10124000686804F06AFA060007F011FE864206DAC2
:10125000686804F062FADFF8C818087026E007F042
:1012600006FE80B2401E0100DFF8B80804F0ADFCB5
:101270001CE0686800280CD0DFF8A4166868FEF748
:1012800095FF002805D152A16868FEF78FFF00285E
:101290000CD0DFF8940804F098FC07F0E8FD01009A
:1012A00089B2491EDFF8CC0A04F08FFC002070BD23
:1012B0006F666600603D0408F8B504000D00DFF8B5
:1012C0006068307807F0B0FF07003800C0B200282F
:1012D00002D0012806D00AE03178DFF8500804F087
:1012E00074FC04E03178DFF8900A04F06EFC002012
:1012F000F2BD00006D61700067657400A0380408DD
:10130000B43804086448040870B52DED028B04005D
:101310000D00A1A16868FEF749FF002815D0A86854
:1013200000280ED0A86808F0DCFD51EC100B08F086
:10133000DDFD00EE100ADFF8E807007807F03CFE5C
:1013400042E0D84804F041FC3EE09BA16868FEF70B
:101350002DFF002816D0DFF8C867307807F068FD49
:10136000B0EE408A3178DFF8180A04F02EFC08212C
:10137000B0EE480A012004F001F8DFF8080A04F092
:1013800024FC21E0686800280CD0DFF89415686818
:10139000FEF70CFF002805D10DA16868FEF706FFD7
:1013A00000280CD0DFF8E00904F00FFCDFF8DC09BE
:1013B00004F00BFCDFF8D80904F007FC04E06968CE
:1013C000DFF8A80904F001FC0020BDEC028B70BD21
:1013D0003F000000703D0408D42104080CF4030809
:1013E000F8DB0308B8EE0308D4E7030870430408E9
:1013F000C83804087C4304087007040828E8030878
:1014000070B52DED048B05000E0063A17068FEF72A
:10141000CDFE002832D0B06800282BD0F06800281C
:1014200028D0F06808F05DFDB0EE408AF0EE608AEA
:10143000B06808F056FDB0EE409AF0EE609A0021D8
:101440000C0051EC180B08F051FD00EE900A210041
:10145000B0EE608A0C0051EC190B08F047FD00EE6D
:10146000100A2100F0EE480ADFF8B406007807F011
:1014700001FD8CE08B4804F0A8FB88E04EA1706869
:10148000FEF794FE002822D0DFF89446207807F07B
:101490006AFCB0EE408AF0EE608A2178DFF8F4084A
:1014A00004F093FB0421B0EE480A012003F066FF2C
:1014B000DFF8E40804F089FB0421B0EE680A01209B
:1014C00003F05CFFDFF8D40804F07FFB5FE0DFF897
:1014D000D0187068FEF76AFE002832D0B068002885
:1014E0002BD0F068002828D0F06808F0FAFCB0EEA5
:1014F000408AF0EE608AB06808F0F3FCB0EE409AE3
:10150000F0EE609A01210C0051EC180B08F0EEFC93
:1015100000EE900A2100B0EE608A0C0051EC190B2D
:1015200008F0E4FC00EE100A2100F0EE480ADFF8B3
:10153000F005007807F09EFC29E05A4804F045FBCE
:1015400025E0706800280CD0DFF8D4137068FEF72F
:101550002DFE002805D14CA17068FEF727FE00285B
:1015600010D0DFF8400804F030FBDFF83C0804F04E
:101570002CFBDFF8380804F028FBDFF8340804F00F
:1015800024FB04E07168DFF8E40704F01EFB002090
:10159000BDEC048B70BD00007365740038B50400A9
:1015A0000D0007F064FC80B20100DFF8080804F0C9
:1015B0000CFB002032BD000067657400E8190408C8
:1015C00044E3030838DE03080C48040870B52DED29
:1015D000028B04000D00DFF8E0176868FEF7E6FDF7
:1015E000002815D0A86800280ED0A86808F079FC5B
:1015F00051EC100B08F07AFC00EE100ADFF8200521
:10160000007807F0BCFD3AE0264804F0DEFA36E048
:1016100089A16868FEF7CAFD002815D0DFF80065CB
:10162000307807F081FBB0EE408A3178DFF88C0724
:1016300004F0CBFA0421B0EE480A012003F09EFE2C
:101640007EA004F0C2FA1AE0686800280BD0B44902
:101650006868FEF7ABFD002805D10BA16868FEF7AE
:10166000A5FD00280BD0DFF8580704F0AEFADFF82C
:10167000540704F0AAFADFF8480C04F0A6FA002098
:10168000BDEC028B70BD00003F0000006C480408F8
:1016900074480408884304087C4804088448040803
:1016A00094430408103D0408144804088C480408B6
:1016B0002DE9F8432DED048B06000F005FF00008C4
:1016C000DFF804177868FEF771FD002805D190A1B6
:1016D0007868FEF76BFD002804D0012080460020CA
:1016E000050010E0DFF8E4167868FEF75FFD0028DB
:1016F00005D188A17868FEF759FD002803D00120A4
:101700008046012005004046C0B201285DD1B8687E
:10171000002855D0F86800283ED0386900283BD012
:10172000386908F0DEFBB0EE408AF0EE608AF868B7
:1017300008F0D7FBB0EE409AF0EE609ADFF8E09345
:1017400001210C0051EC180B08F0D0FB00EE900AC0
:101750002100B0EE608A0C0051EC190B08F0C6FBBA
:1017600000EE100A2100F0EE480A99F8000007F098
:1017700081FBB86808F0B5FB0322140051EC100B94
:1017800008F0B4FB00EE100A22002900C9B299F853
:10179000000007F067FC49E0B86808F0A2FB0222ED
:1017A000140051EC100B08F0A1FB00EE100A22000F
:1017B0002900C9B2DFF86803007807F053FC35E070
:1017C000DFF80C0604F001FA30E0DFF8081678685C
:1017D000FEF7ECFC002804D0D148007807F09CFC10
:1017E00024E0786800280BD04D497868FEF7DEFCCD
:1017F000002805D148A17868FEF7D8FC002810D051
:10180000DFF8C00A04F0E1F9DFF8BC0A04F0DDF902
:10181000DFF8B80A04F0D9F9DFF8B40A04F0D5F912
:1018200004E07968DFF8440504F0CFF90020BDEC4E
:10183000048BBDE8F283000067657400206D6C00C6
:10184000803D040894480408A0430408903D04081F
:10185000DC380408AC43040838B504000D00A44982
:101860006868FEF7A3FC00281FD0A868002817D0DE
:10187000A86803F052FF01280DDBA86803F04DFFB4
:10188000032808DAA86803F048FF0100C9B2012064
:1018900003F034FB3AE0DFF8B80A04F096F935E0DB
:1018A000DFF8AC0A04F091F930E0DFF8A81A6868B4
:1018B000FEF77CFC002808D00121002003F01EFB6D
:1018C000DFF8940A04F081F920E0686800280BD062
:1018D00013496868FEF76AFC002805D10EA1686804
:1018E000FEF764FC00280CD0DFF8700A04F06DF9F4
:1018F000DFF86C0A04F069F9DFF8680A04F065F9AA
:1019000004E06968DFF8640404F05FF9002032BD88
:1019100065000000640000003F000000B8430408B8
:1019200094470408F42104085CDB0308D00204088F
:101930007CFE0308C0F7030800EF0308F0EC03087F
:1019400048EF030870EA0308C0EA030824E6030826
:101950003CED030810EB030838B504000D00DFF878
:10196000081A6868FEF722FC002835D0DFF8FC1959
:10197000A868FEF71BFC00281CD0E868002814D0DB
:10198000E86803F0CAFE0A280FDBE86803F0C5FE2A
:10199000DFF8DC1908800120DFF8D8190870DFF8BB
:1019A000D809006802F056F896E0DFF8240404F045
:1019B0000CF991E0DFF81C14A868FEF7F7FB00288B
:1019C00005D0DFF8B409006801F0BDFF84E0DFF85E
:1019D000AC0904F0FAF87FE0DFF890196868FEF7C8
:1019E000E5FB00281FD0A868002817D0A86808F0D9
:1019F00078FA51EC100B0022002308F0ABFA0DD856
:101A000003F0EDF9A86808F06CFA51EC100B08F03F
:101A10006DFA00EE100A03F06DF95DE0DFF85C0985
:101A200004F0D3F858E0DFF8AC136868FEF7BEFBAB
:101A3000002804D003F0D3F903F0AAF94CE0DFF852
:101A400040196868FEF7B2FB002818D0A868002883
:101A500042D0A86808F045FA51EC100B0022002390
:101A600008F078FA38D8A86808F03BFA51EC100B67
:101A700008F03CFA00EE100A03F0D2FA2CE0686895
:101A800000280CD0DFF8FC186868FEF78FFB0028F0
:101A900005D115A16868FEF789FB002818D0DFF88A
:101AA000E80804F092F8DFF8E40804F08EF8DFF8B4
:101AB000E00804F08AF8DFF8DC0804F086F8DFF8C4
:101AC000D80804F082F8DFF8D40804F07EF803E0C8
:101AD0006968A64804F079F8002032BD0C1A0408A1
:101AE000A0070408040304083F000000A03D040808
:101AF0009C480408C4430408F0380408A4480408B7
:101B0000D043040814220408FFFF010090EF0308EB
:101B1000B4FE030820130408ECFE030824FF0308A6
:101B2000E77E0020EC31040834220408B03D0408AC
:101B3000F8B504000D00DFF834186868FEF736FBCE
:101B4000002824D0A86800281CD0E868002814D0F9
:101B50002869002811D0286903F0DFFD0600E86835
:101B600003F0DBFD0700A86803F0D7FD3200D2B216
:101B70003900C0B208F008FCF4E0DFF8240804F0F3
:101B800024F8EFE0DFF81C0804F01FF8EAE09149C0
:101B90006868FEF70BFB002802D008F07EFCE1E04D
:101BA000DFF804186868FEF701FB00280DD008F084
:101BB000FDFF012804D1DFF8F40704F006F8D1E0B6
:101BC000DFF8EC0704F001F8CCE067A16868FEF7E5
:101BD000EDFA002839D0DFF8DC17A868FEF7E6FA3E
:101BE000002817D0E86800280FD0286900280CD0FA
:101BF000286903F092FD0600E86803F08EFD3100CD
:101C0000C9B2C0B208F0CDFCACE0DFF8980703F031
:101C1000DCFFA7E0DFF8A017A868FEF7C7FA0028E6
:101C20000ED0E868002806D0E86803F076FDC0B260
:101C300008F075FD96E0DFF86C0703F0C6FF91E051
:101C4000A9684A4803F0C1FF8CE049A16868FEF723
:101C5000ADFA00284BD0DFF85C17A868FEF7A6FAAB
:101C6000002820D0E868002818D02869002815D05E
:101C70006869002812D0686903F04FFD06002869E2
:101C800003F04BFD0700E86803F047FD3200D2B2D5
:101C9000390089B2C0B208F0D8FC63E0DFF8540B19
:101CA00003F093FF5EE0DFF81017A868FEF77EFAF6
:101CB000002817D0E86800280FD0286900280CD029
:101CC000286903F02AFD0600E86803F026FD3100CC
:101CD00089B2C0B208F059FD44E0DFF8180B03F0F8
:101CE00074FF3FE0A968214803F06FFF3AE068689D
:101CF00000280CD0DFF88C166868FEF757FA002829
:101D000005D11EA16868FEF751FA002826D0DFF839
:101D1000E80A03F05AFFDFF8E40A03F056FFDFF8A1
:101D2000E00A03F052FF032003F00FFBDFF8D40AB0
:101D300003F04BFFDFF8D00A03F047FF032003F066
:101D400004FBDFF8C80A03F040FFDFF8C40A03F021
:101D50003CFFDFF8C00A03F038FF03E0696803487E
:101D600003F033FF0020F2BD676574007838040883
:101D7000736574007CE60308C03D04083F00000062
:101D8000D03D040864430408301A04087CE80308C2
:101D900060EB0308E03D040804390408AC4804087B
:101DA000DC430408B80C040890DC0308A0E3030833
:101DB00090E00308F03D0408B4480408003E04081D
:101DC000541A0408D8EF03086C480408744804083F
:101DD000103D0408144804082DE9F0412DED068B50
:101DE00084B004000D00BCA16868FEF7DFF900288C
:101DF00014D0A868002806D0A86803F08EFCC0B2F2
:101E000008F0EDFF52E2DFF8140A00780228C0F271
:101E10004D82DFF80C0A03F0D8FE47E2DFF84C658C
:101E200031006868FEF7C2F9002814D0A8680028BD
:101E300006D0A86803F071FCC0B209F0FEF835E2E4
:101E4000DFF8D80900780228C0F23082DFF8D00924
:101E500003F0BBFE2AE2DFF8FC146868FEF7A6F97F
:101E6000002814D0A868002806D0A86803F055FC04
:101E7000C0B209F090FA19E2DFF8A0090078022850
:101E8000C0F21482DFF8980903F09FFE0EE2DFF83B
:101E900094196868FEF78AF9002854D03100A868C0
:101EA000FEF784F900282CD0E868002824D028699F
:101EB000002821D0686900281ED0A86900281BD0FE
:101EC000E86803F02AFCC0B209F013FCA86903F02B
:101ED00024FC0600686903F020FC0700286903F071
:101EE0001CFC8046E86803F018FC33003A004146C9
:101EF000C0B209F00FF9D9E1DFF82C0903F065FE53
:101F0000D4E1DFF82819A868FEF750F9002814D0AA
:101F1000E86800280CD0E86803F0FFFBC0B209F0C5
:101F2000E8FBE86803F0F9FBC0B209F093F9BDE102
:101F3000DFF8F40803F049FEB8E1A968DFF81C0CEB
:101F400003F043FEB2E1DFF8E8186868FEF72EF907
:101F5000002842D0A9A1A868FEF728F9002813D0CC
:101F6000E86800280BD0E86803F0D7FBC0B208F09F
:101F700048FF0100DFF8600B03F027FE96E1DFF871
:101F8000A80803F022FE91E1CBA1A868FEF70EF9A4
:101F900000281CD0E868002813D02869002810D039
:101FA000286903F0BAFB01280BDB286903F0B5FBB5
:101FB0000600E86803F0B1FB3100C0B208F054FF3E
:101FC00074E1E968DFF8940B03F0FFFD6EE1A968A6
:101FD000DFF8880B03F0F9FD68E1B8A16868FEF747
:101FE000E5F8002800F0808084A1A868FEF7DEF8FC
:101FF00000282BD0E868002822D0E86803F08DFB89
:10200000C0B208F07BFFF0EE409AB0EE60AAF0EEAE
:1020100041AA1AEE900A09F0C5FBCDE902011AEEB9
:10202000100A09F0BFFBCDE9000119EE900A09F092
:10203000B9FB02000B00DFF82C0B03F0C6FD35E105
:10204000E968DFF8180B03F0C0FD2FE19AA1A8683A
:10205000FEF7ACF8002841D0E868002836D028699F
:10206000002833D06869002830D0A86900282DD016
:10207000286907F036FF51EC100B07F037FF00EE30
:10208000100AB0EE408A686907F02BFF51EC100B84
:1020900007F02CFF00EE100AF0EE408AA86907F066
:1020A00020FF51EC100B07F021FF00EE100AB0EEFC
:1020B000409AE86803F031FBB0EE480AF0EE680A97
:1020C000B0EE491AC0B208F05AFFEFE0DFF89C0A00
:1020D00003F07BFDEAE000BF6F6E0000A968DFF847
:1020E0007C0A03F072FDE1E0DFF8841A6868FEF70D
:1020F0005DF800284DD041A1A868FEF757F80028E8
:1021000019D0E868002810D0E86803F006FBC0B2D8
:1021100009F05AFC10EE100A09F044FB02000B0013
:10212000DFF8500A03F051FDC0E0E968DFF82C0A3F
:1021300003F04BFDBAE060A1A868FEF737F800286D
:1021400021D0E868002818D02869002815D028690F
:1021500007F0C7FEB0EE40AAF0EE60AAE86803F010
:10216000DCFA060051EC1A0B07F0C0FE00EE100A74
:102170003000C0B209F058FC98E0E968DFF8DC09EB
:1021800003F023FD92E0A968DFF8D00903F01DFDFC
:102190008CE0DFF8E4196868FEF708F800282FD013
:1021A000A868002822D0E86800281FD0E86807F057
:1021B00098FE51EC100B0022002307F0CBFE15D83F
:1021C000E86807F08EFEB0EE40AAF0EE60AAA868BC
:1021D00003F0A3FA060051EC1A0B07F087FE00EE9D
:1021E000100A3000C0B209F00FFD5FE0EA68A9688C
:1021F000DFF82C0B03F0E9FC58E000BF67657400C2
:10220000686800280BD05F496868FDF7CFFF002899
:1022100005D14EA16868FDF7C9FF002841D0DFF85D
:10222000040B03F0D2FC0121DFF8FC0A03F0CDFC23
:10223000DFF8F80A03F0C9FCDFF8F40A03F0C5FC84
:102240000A2003F082F8DFF8EC0A03F0BEFCDFF8A6
:10225000E80A03F0BAFC0A2003F077F8DFF8DC0A9A
:1022600003F0B3FCDFF8D80A03F0AFFC0A2003F058
:102270006CF8DFF8D00A03F0A8FCDFF8CC0A03F012
:10228000A4FC0A2003F061F8DFF8C00A03F09DFC0B
:10229000DFF8BC0A03F099FCDFF8BC0A03F095FCF8
:1022A00004E06968DFF8B40803F08FFC002004B094
:1022B000BDEC068BBDE8F081736574007069640045
:1022C000D007040854220408F4E0030884E2030859
:1022D000E40C040838B504000D00DFF8801A6868C3
:1022E000FDF764FF002803D0042009F015FE2BE061
:1022F000DFF86C1A6868FDF759FF002803D000204A
:1023000009F00AFE20E0686800280BD01D496868C3
:10231000FDF74CFF002805D10CA16868FDF746FFCA
:1023200000280CD0DFF83C0A03F04FFCDFF8380A35
:1023300003F04BFCDFF8340A03F047FC04E0696863
:10234000DFF8180803F041FC002032BD3F00000018
:10235000103E0408BC480408FC2904087422040840
:10236000FCE3030850F40308C44804080C480408BC
:10237000C07E0020E87E0020647D0020203E04080E
:102380006448040894470408182A040820E0030855
:1023900058E4030858E1030894220408D0E803082D
:1023A000043204081C320408CC48040834320408FF
:1023B0004C320408D4480408DC48040870B52DEDFC
:1023C000068B04000D00DFF8A8196868FDF7EEFE23
:1023D000002853D0A86800284BD0E868002848D0CF
:1023E0002869002845D06869002842D0A86803F011
:1023F00094F9C0B207F071F9686907F072FDB0EEA8
:10240000408AF0EE608A286907F06BFDB0EE409AD2
:10241000F0EE609AE86807F064FDB0EE40AAF0EED6
:1024200060AAA86803F079F9060051EC180B07F0D0
:102430005DFD01EE100AB0EE418A51EC190B07F078
:1024400055FD00EE900AB0EE481AB0EE608AF0EE4C
:10245000418A51EC1A0B07F049FD00EE100AB0EE6C
:10246000681AF0EE480A00213000C0B207F0C3F845
:10247000BBE1DFF8F80603F0A8FBB6E1DFF8F418DB
:102480006868FDF793FE002853D0A86800284BD059
:10249000E868002848D02869002845D068690028E5
:1024A00042D0A86803F039F9C0B207F016F968699C
:1024B00007F017FDB0EE408AF0EE608A286907F059
:1024C00010FDB0EE409AF0EE609AE86807F009FD62
:1024D000B0EE40AAF0EE60AAA86803F01EF906006C
:1024E00051EC180B07F002FD01EE100AB0EE418A24
:1024F00051EC190B07F0FAFC00EE900AB0EE481A06
:10250000B0EE608AF0EE418A51EC1A0B07F0EEFC57
:1025100000EE100AB0EE681AF0EE480A0121300011
:10252000C0B207F068F860E1DFF8400603F04DFB49
:102530005BE1DFF8241B6868FDF738FE002853D004
:10254000A86800284BD0E868002848D028690028EF
:1025500045D06869002842D0A86803F0DEF8C0B210
:1025600007F0BBF8686907F0BCFCB0EE408AF0EEFB
:10257000608A286907F0B5FCB0EE409AF0EE609AE8
:10258000E86807F0AEFCB0EE40AAF0EE60AAA868DA
:1025900003F0C3F8060051EC180B07F0A7FC01EE9E
:1025A000100AB0EE418A51EC190B07F09FFC00EEC7
:1025B000900AB0EE481AB0EE608AF0EE418A51EC13
:1025C0001A0B07F093FC00EE100AB0EE681AF0EE5A
:1025D000480A02213000C0B207F00DF805E1DFF82B
:1025E0008C0503F0F2FA00E1DFF8701A6868FDF775
:1025F000DDFD002853D0A86800284BD0E8680028EB
:1026000048D02869002845D06869002842D0A868C9
:1026100003F083F8C0B207F060F8686907F061FC66
:10262000B0EE408AF0EE608A286907F05AFCB0EEFE
:10263000409AF0EE609AE86807F053FCB0EE40AACA
:10264000F0EE60AAA86803F068F8060051EC180BD9
:1026500007F04CFC01EE100AB0EE418A51EC190B68
:1026600007F044FC00EE900AB0EE481AB0EE608A23
:10267000F0EE418A51EC1A0B07F038FC00EE100A1C
:10268000B0EE681AF0EE480A03213000C0B206F03E
:10269000B2FFAAE0DFF8D40403F097FAA5E063499B
:1026A0006868FDF783FD002814D0A86800280CD0C6
:1026B000A86803F032F8C0B207F00FF8A86803F07A
:1026C0002CF8C0B207F059F88FE0DFF8A00403F04F
:1026D0007CFA8AE0DFF88C1A6868FDF767FD00284D
:1026E0002AD0A868002822D0A86803F016F8C0B243
:1026F00006F061FF06003000C0B200280BD1A868C8
:1027000003F00BF8C0B206F0B2FE0100DFF8580A81
:1027100003F05BFA69E0A86802F0FFFFC0B206F0C0
:10272000A6FE0100DFF8440A03F04FFA5DE0DFF88F
:102730003C0403F04AFA58E0DFF8341A6868FDF701
:1027400035FD002805D00221DFF8280A03F03DFA04
:102750004BE0686800280CD0DFF81C1A6868FDF7A9
:1027600025FD002805D12CA16868FDF71FFD002874
:1027700037D0DFF8080A03F028FADFF8040A03F07C
:1027800024FADFF8000A03F020FADFF8FC0903F06E
:102790001CFA022002F0D9FDDFF8F00903F015FA67
:1027A000DFF8EC0903F011FADFF8E80903F00DFA9D
:1027B000DFF8E40903F009FA0A2002F0C6FD00265A
:1027C0003000C0B2022810DA3000C0B206F04FFE6E
:1027D00002003100C9B2DFF8C40903F0F6F9761C33
:1027E000EEE76968DD4803F0F0F90020BDEC068BE8
:1027F00070BD0000B4220408100D0408B8DE030800
:102800003C0D040888ED030824E903083803040894
:10281000C0FA0308FCFA03083F0000005100002042
:10282000303E0408E4480408183904081448040831
:10283000EC480408F8B52DED068B05000E00A3A4A6
:1028400021007068FDF7B2FC002822D0B068002893
:102850001AD0B06802F061FFC0B209F0D5FBB0EE4B
:10286000408AB06802F059FFC0B209F06CFB040066
:1028700018EE100A08F096FF02000B002100DFF8A6
:10288000200903F0A2F91CE1B168B44803F09DF9F6
:1028900017E18FA17068FDF789FC00280CD009F0C2
:1028A000E3FB10EE100A08F07DFF02000B00DFF8DA
:1028B000F40803F08AF904E186A17068FDF776FC5C
:1028C000002829D009F0D0FB10EE100A08F06AFFAA
:1028D00002000B00DFF8CC0803F077F9002738007E
:1028E000C0B2022880F2ED803800C0B207F082F951
:1028F000B0EE408A3800C0B206F0B9FD040018EE10
:10290000100A08F04FFF02000B002100DFF89808C2
:1029100003F05BF97F1CE2E7DFF890187068FDF7C1
:1029200045FC002800F08F802100B068FDF73EFCD8
:1029300000283ED0F068002836D0F06802F0EDFEA6
:10294000C0B209F007FBF0EE409AB0EE60AAF0EEDC
:1029500041AADFF8D40A007804280ADBF06802F004
:10296000DCFEC0B209F0EFFA0100DFF8C00A03F0A4
:102970002CF90821B0EE690A012002F0FFFCDFF813
:10298000B00A03F022F90821B0EE4A0A012002F051
:10299000F5FCDFF8DC0A03F018F90821B0EE6A0A4A
:1029A000012002F0EBFC8CE0DFF8C80A03F00DF91F
:1029B00087E06BA1B068FDF7F9FB002800F081808B
:1029C000F06800283AD03069002837D070690028B4
:1029D00034D0B069002831D0306907F082FA51EC68
:1029E000100B07F083FA00EE100AB0EE408A70690F
:1029F00007F077FA51EC100B07F078FA00EE100AA6
:102A0000F0EE408AB06907F06CFA51EC100B07F059
:102A10006DFA00EE100AB0EE409AF06802F07DFE0A
:102A2000B0EE480AF0EE680AB0EE491AC0B209F0FA
:102A3000BBFADFF8A00A03F0C8F842E0DFF8340A76
:102A400003F0C3F83DE0706800280CD0DFF82817C9
:102A50007068FDF7ABFB002805D143A17068FDF756
:102A6000A5FB002829D0DFF8C00A03F0AEF8DFF894
:102A7000EC0A03F0AAF8DFF8E80A03F0A6F8DFF89A
:102A8000E40A03F0A2F8DFF8E00A03F09EF8DFF8AA
:102A9000DC0A03F09AF800242000C0B2022810DA01
:102AA0002000C0B209F04FFA02002100C9B2DFF8DD
:102AB000EC0603F08AF8641CEEE77168274803F01F
:102AC00084F80020BDEC068BF2BD00006765740041
:102AD000656E7600616C6C00342A040838B5040019
:102AE0000D006868002819D0686807F0FAF951EC01
:102AF000100B0022002307F02DFA0FD8686807F0AA
:102B0000F0F951EC100B07F0F1F900EE100A06F0A5
:102B1000E9FEDFF8C00903F058F81CE068680028F7
:102B20000CD0DFF854166868FDF740FB002805D18B
:102B30000DA16868FDF73AFB002808D0DFF8AC0A61
:102B400003F043F8DFF8A80A03F03FF803E06968F0
:102B5000024803F03AF8002032BD0000783804083B
:102B600073657400502A04083F000000103D0408FB
:102B7000F4480408D4220408FC48040870B52DED7C
:102B8000048B04000D0064A16868FDF70FFB0028AA
:102B90003ED0A868002836D0A86802F0BEFDC0B2BA
:102BA00006F0C0FFB0EE408AF0EE608AB0EE419AC7
:102BB000DFF87408007804280ADBA86802F0ADFD8D
:102BC000C0B206F054FC0100DFF82C0A02F0FDFF51
:102BD0000821B0EE480A012002F0D0FBDFF85008CF
:102BE00002F0F3FF0821B0EE680A012002F0C6FBF4
:102BF000DFF87C0802F0E9FF0821B0EE490A012065
:102C000002F0BCFB83E0DFF86C0802F0DEFF7EE040
:102C100042A16868FDF7CAFA002842D0A8680028D7
:102C20003AD0E868002837D02869002834D068698D
:102C3000002831D0E86807F054F951EC100B07F088
:102C400055F900EE100AB0EE408A286907F049F9FC
:102C500051EC100B07F04AF900EE100AF0EE408A32
:102C6000686907F03EF951EC100B07F03FF900EEF0
:102C7000100AB0EE409AA86802F04FFDB0EE480A84
:102C8000F0EE680AB0EE491AC0B206F077FFDFF83E
:102C9000440802F09AFF3AE0DFF8D80702F095FF07
:102CA00035E0686800280CD0DFF8CC146868FDF7C0
:102CB0007DFA002805D127A16868FDF777FA00287A
:102CC00020D0DFF8380902F080FFDFF8340902F085
:102CD0007CFFDFF8300902F078FF0A2002F035FBB4
:102CE00000263000C0B2022811DA3000C0B206F06F
:102CF000BEFB02003100C9B2DFF8A00402F065FF9C
:102D0000761CEEE76968DFF8000902F05EFF00203C
:102D1000BDEC048B70BD00006765740073657400C2
:102D200064320408F422040894F40308B4E40308A9
:102D300034DF0308B4DD030810E5030800F80308D6
:102D400038FB030874FB0308B0FB0308D8F403083E
:102D500020F003083F00000068F00308E84304087F
:102D600004490408142304082C39040840390408D1
:102D70000C4904081449040870B52DED048B82B089
:102D800004000D00B2A16868FDF710FA00283AD0DF
:102D9000A868002831D0A86802F0BFFCC0B206F0D5
:102DA0009DFBB0EE408AF0EE608AB0EE419AA868D2
:102DB00002F0B3FCC0B206F05AFB0100DFF84C0889
:102DC00002F003FF0321B0EE480A012002F0D6FA18
:102DD000DFF83C0802F0F9FE0321B0EE680A01209A
:102DE00002F0CCFADFF82C0802F0EFFE0321B0EE7F
:102DF000490A012002F0C2FA24E1A968DFF80808B4
:102E000002F0E3FE1EE193A16868FDF7CFF9002808
:102E100049D0A86800283CD0E868002839D0286943
:102E2000002836D06869002833D0E86807F059F8E0
:102E300051EC100B07F05AF800EE100AB0EE408A81
:102E4000286907F04EF851EC100B07F04FF800EE30
:102E5000100AF0EE408A686907F043F851EC100B55
:102E600007F044F800EE100AB0EE409AA86802F0AD
:102E700054FCB0EE480AF0EE680AB0EE491AC0B24F
:102E800006F059FBC0B20100DFF88C0702F09DFE8E
:102E9000D8E0686900902B69EA68A968DFF87C07C8
:102EA00002F093FECEE0DFF878176868FDF77EF950
:102EB00000283AD0A868002831D0A86802F02DFC7C
:102EC000C0B206F089FCB0EE408AF0EE608AB0EE47
:102ED000419AA86802F021FCC0B206F0C8FA0100CD
:102EE000DFF8280702F071FE0321B0EE480A012046
:102EF00002F044FADFF8180702F067FE0321B0EE93
:102F0000680A012002F03AFADFF8080702F05DFED5
:102F10000321B0EE490A012002F030FA92E0A968DC
:102F2000DFF8E40602F051FE8CE0DFF8F81668687E
:102F3000FDF73CF9002849D0A86800283CD0E86893
:102F4000002839D02869002836D06869002833D095
:102F5000E86806F0C6FF51EC100B06F0C7FF00EE64
:102F6000100AB0EE408A286906F0BBFF51EC100B46
:102F700006F0BCFF00EE100AF0EE408A686906F029
:102F8000B0FF51EC100B06F0B1FF00EE100AB0EEEE
:102F9000409AA86802F0C1FBB0EE480AF0EE680A59
:102FA000B0EE491AC0B206F044FCC0B20100DFF82E
:102FB000680602F00AFE45E0686900902B69EA683D
:102FC000A968DFF8580602F000FE3BE068680028B8
:102FD0000BD069496868FDF7E9F8002805D15FA1C1
:102FE0006868FDF7E3F8002827D0DFF83C0602F018
:102FF000ECFDDFF8380602F0E8FDDFF8340602F0F9
:10300000E4FDDFF8300602F0E0FDDFF82C0602F008
:10301000DCFD0A2002F099F900263000C0B2022837
:1030200010DA3000C0B206F022FA02003100C9B254
:103030005A4802F0CAFD761CEFE76968DFF8C80558
:1030400002F0C3FD002002B0BDEC048B70BD000097
:103050006765740073657400F44304081C49040830
:1030600038B504000D00DFF8D4156868FDF79EF848
:1030700000282CD0A868002824D0A86806F031FFCA
:1030800051EC100B0022002306F064FF1AD8A86848
:1030900006F027FF51EC100B0122DFF8A43508F0F1
:1030A000E7FF0FD2A86806F01CFF51EC100B06F0EA
:1030B0001DFF00EE100A09F027F8DFF8880502F07E
:1030C00084FD48E0DFF8800502F07FFD43E0DFF893
:1030D0007C156868FDF76AF8002808D09FED200A83
:1030E00009F012F8DFF8680502F06FFD33E01D49C2
:1030F0006868FDF75BF8002808D009F03AF8C0B21C
:103100000100DFF8500502F060FD24E06868002847
:103110000BD019496868FDF749F8002805D10FA1BF
:103120006868FDF743F8002810D0DFF82C0502F09E
:103130004CFDDFF8280502F048FDDFF8240502F019
:1031400044FDDFF8200502F040FD04E06968DFF887
:10315000B80402F03AFD002032BD00003F0000003C
:1031600000000000244904087C320408943204085A
:103170002C490408AC32040894470408342304089A
:103180006C030408A0030408D4030408080404081A
:103190003C04040870040408A4040408403E040825
:1031A000503E0408C43204086C2A04083449040858
:1031B00070B52DED028B05000E00DFF880147068ED
:1031C000FCF7F4FF002843D0B06800283AD0F0683C
:1031D000002837D0B06802F0A0FAC0B206F0B5FD02
:1031E0000100DFF8840402F0F0FCF06806F079FEDC
:1031F00003210C0053EC102B0020DFF8701408F0B2
:10320000C9FF06F073FE00EE100A2100012002F053
:10321000B5F896A002F0D9FCF06806F062FEB0EEB8
:10322000408AF0EE608AB06802F077FA040051EC50
:10323000180B06F05BFE00EE100A2000C0B206F08C
:10324000BFFDEDE0B168DFF8C00302F0BEFCE7E0CF
:10325000DFF8F8137068FCF7A9FF00281CD0B068ED
:10326000002813D0B06802F058FAC0B206F06DFD25
:103270000100DFF8FC0302F0A8FCB06802F04DFA90
:103280009FED930AC0B206F09BFDC9E0B168DFF87C
:10329000780302F09AFCC3E0DFF8D8137068FCF7FB
:1032A00085FF002819D0B068002811D0B06802F05E
:1032B00034FAC0B206F049FD0100DFF8BC0302F0A9
:1032C00084FCB06802F029FAC0B206F045FDA7E020
:1032D000B168CD4802F079FCA2E0DFF8A013706875
:1032E000FCF764FF002842D0B06800283AD0F068AC
:1032F000002837D0B06802F010FAC0B206F025FD01
:103300000100DFF87C0302F060FCF06806F0E9FDE4
:1033100003210C0053EC102B0020DFF8501308F0B1
:1033200039FF06F0E3FD00EE100A2100012002F053
:1033300025F84EA002F049FCF06806F0D2FDB0EE90
:10334000408AF0EE608AB06802F0E7F9040051ECC0
:10335000180B06F0CBFD00EE100A2000C0B206F0FC
:1033600083FD5DE0B168A84802F02FFC58E0C54934
:103370007068FCF71BFF002818D0B068002810D038
:10338000B06802F0CAF9C0B206F0DFFC0100BE4826
:1033900002F01BFCB06802F0C0F9C0B206F040FDBC
:1033A0003EE0B168984802F010FC39E070680028EF
:1033B0000BD0B6497068FCF7F9FE002805D166A16C
:1033C0007068FCF7F3FE002826D0B14802F0FDFB40
:1033D0000421B04802F0F9FBAF4802F0F6FBAF4819
:1033E00002F0F3FBAE4802F0F0FBAE4802F0EDFB5A
:1033F00000242000C0B2042812DA2000C0B206F077
:10340000A4FC02002100C9B2A74802F0DEFB0120A3
:1034100001F09BFF641CECE771687B4802F0D5FB70
:103420000020BDEC028B70BD510000205423040825
:103430000044040870B504000D009C4802F0C5FB70
:103440009B4802F0C2FB9B4E306800280CD00A203B
:1034500001F07BFFB068002804D0B268316896485C
:1034600002F0B3FB0C36EFE7002070BD20252500ED
:103470000C440408603E04083EB504000D0008F04A
:103480005BFF029008F05DFF01908C48C1880091BD
:103490008388428801888A4802F097FB9DF80B00D8
:1034A00000909DF80A309DF809209DF80810854885
:1034B00002F08BFB9DF8070000909DF806309DF808
:1034C00005209DF80410804802F07FFB00203EBDDF
:1034D000000000001844040838B504000D0002F094
:1034E00002FD002032BDF8B504000D00002677482B
:1034F00002F06BFB0127A74207DA55F827203900B5
:10350000734802F062FB7F1CF5E70020F2BD38B57E
:1035100004000D0034A002F058FB0A2001F015FF52
:1035200001F028FF002032BD7423040838B50400E0
:103530000D006868002806D0686802F0EEF8C0B296
:1035400008F008FF06E008F008FF0100C9B2614872
:1035500002F03BFB002032BD3F000000680D040874
:10356000940D0408C00D0408EC0D0408180E04089E
:1035700038B504000D0058496868FCF717FE0028AC
:1035800009D05649A868FCF711FE00282AD05448F3
:1035900002F01BFB26E053496868FCF707FE002891
:1035A00003D0514802F011FB1CE0686800280BD0E2
:1035B00036496868FCF7FAFD002805D10DA1686856
:1035C000FCF7F4FD002809D0484802F0FEFA48480C
:1035D00002F0FBFA474802F0F8FA03E069680A488B
:1035E00002F0F3FA002032BD0A0A0A00781A040831
:1035F000DC3204083F0000009C1A0408C01A0408CA
:10360000440E0408700E040878380408543904087D
:103610003C4904084449040824440408E41A040802
:103620004C49040854490408081B040848130408BA
:103630007013040898130408C01304085C490408B4
:103640000000F03F882A0408942304081448040862
:10365000A42A0408F4320408B42304082C1B040828
:103660000C330408000804082433040800005940FF
:10367000703E040864490408683904086C49040869
:10368000E813040874490408C02A0408944704088D
:10369000501B0408ECFB0308101404083814040839
:1036A0006014040888140408403E04083C330408ED
:1036B0007C39040808D403087C490408A449040898
:1036C000543304086C33040884330408803E04082F
:1036D00090390408844904088C4904089449040872
:1036E000A43904089C490408903E0408DC2A040814
:1036F000300804086008040881EA00039B0717D11A
:10370000820707D010F8012B11F8013BBAB19A4299
:10371000F6D014E002680B689A42A2F1013301BFAF
:10372000934313F0803F50F8042F51F8043FF3D037
:1037300010F8012B11F8013B0AB19A42F8D0D01AC7
:10374000704730B4002513E050F8042BD30744BF72
:10375000A9F101039A18091F042942F8045BFAD25F
:1037600013468C0744BF15809B1CC90748BF1D70BA
:1037700050F8041B0029E7D130BC70472DE9FB4FFE
:1037800082B006001700DDF838800F9CDDF840900D
:10379000DDF844A03000002807D1502080F31188C4
:1037A000BFF34F8FBFF36F8FFEE7B8F10A0F07D358
:1037B000502080F31188BFF34F8FBFF36F8FFEE768
:1037C0004946380080B200F03FFD0500002D61D071
:1037D000286B390089B200EB8100001FC008C000CF
:1037E0000190019810F0070F07D0502080F3118846
:1037F000BFF34F8FBFF36F8FFEE7380080B20090AA
:10380000534642460399280000F06EFC049A3100AA
:10381000019808F0A7FD2860002C00D0256008F072
:1038200022FEDFF86C160868401C0860DFF864268A
:103830001068002806D11560086801280CD100F036
:103840008BFC09E0DFF8BC060068002804D1106892
:10385000C06A804500D31560DFF8AC060168491CDA
:10386000016000686864DFF8A4160A680123E86A4A
:1038700083401A430A60291DDFF89426EB6A14205E
:10388000434302EB030008F09BFE5FF0010B08F0DE
:1038900004FE01E05FF0FF3BBBF1010F13D1DFF845
:1038A0006406006800280ED0DFF8E8050068C06AEA
:1038B000404508D25FF08050DFF83C170860BFF346
:1038C0004F8FBFF36F8F584605B0BDE8F08FF8B546
:1038D00004000025002C2AD0DFF894060068002898
:1038E00007D0502080F31188BFF34F8FBFF36F8F45
:1038F000FEE700F028F9DFF804070068201806004A
:10390000DFF890753868001D08F081FE002808D1A6
:103910003868DFF8F8150A680123C06A83409A43C3
:103920000A60300000F06CFC00F013F90500002D77
:1039300008D15FF08050DFF8C0160860BFF34F8FEA
:10394000BFF36F8FF1BD70B5040008F08CFD002C43
:1039500003D1DFF84005056800E02500281D08F0C8
:1039600056FE00280FD1DFF8A815EA6A142042435A
:103970008858002807D1DFF894150A680123E86AFF
:1039800083409A430A60A86A002803D015F1180002
:1039900008F03DFEDFF82867291D300008F010FE12
:1039A00008F07BFDDFF8EC140868854227D1DFF8CA
:1039B00054050068002816D0DFF8B4050068002818
:1039C00007D0502080F31188BFF34F8FBFF36F8F64
:1039D000FEE75FF08050DFF820160860BFF34F8FDE
:1039E000BFF36F8F16E03068DFF8A42412689042AE
:1039F00002D1002008600DE000F0FDF90AE0DFF8D8
:103A000004050068002805D008F02DFD00F0C1FC79
:103A100008F043FD70BD10B4020000201300002A1E
:103A200007D1502181F31188BFF34F8FBFF36F8F00
:103A3000FEE75969DFF88846A14209D1996ADFF8A3
:103A4000384AA14204D0996A002901D10121080015
:103A500010BC704770B504002500002C07D1502021
:103A600080F31188BFF34F8FBFF36F8FFEE7002DF8
:103A700030D0DFF82064306885422BD008F0F3FCAA
:103A80002800FFF7C8FF012822D1281D08F0BFFD3C
:103A9000DFF878140A680123E86A83401A430A6051
:103AA000291DDFF86C24EB6A1420434302EB03006A
:103AB00008F086FDE86A3168C96A884208D35FF079
:103AC0008050DFF880170860BFF34F8FBFF36F8F10
:103AD00008F0E3FC70BD1FB50020039000200290A9
:103AE000002001900020009000238022DFF88C1934
:103AF0000FF2D150FFF742FE0400012C02D108F072
:103B00009BFD0400012C13D1502080F31188BFF3DA
:103B10004F8FBFF36F8F0120DFF8E813086000209C
:103B2000DFF8D814086001F067FC08F042FC09E0F7
:103B3000002C07D1502080F31188BFF34F8FBFF3C3
:103B40006F8FFEE71FBDDFF828040168491C016084
:103B5000704770B50025DFF818643068002807D179
:103B6000502080F31188BFF34F8FBFF36F8FFEE7B4
:103B700008F079FC3068401E30603068002853D16E
:103B8000C348006800284FD0DFF8EC180868002808
:103B900026D0C868C068040014F1180008F037FD8A
:103BA000201D08F034FDDFF864130A680123E06A81
:103BB00083401A430A60211DDFF85423E36A14206E
:103BC000434302EB030008F0FBFCE06AB1490968DB
:103BD000C96A8842D8D30120DFF874190860D3E796
:103BE000DFF86869306800280ED0306800280BD0F4
:103BF00000F07BF8002803D00120DFF8541908609A
:103C00003068401E3060F0E7DFF8440900680128A2
:103C10000AD1012005005FF08050DFF8DC13086056
:103C2000BFF34F8FBFF36F8F08F037FC280070BDD4
:103C3000DFF8C803006870479548006870472DE9B1
:103C4000F84F06000F0015005FF000080A24FFF788
:103C50007AFF8F480068874242D3641E0122AC4835
:103C6000142101FB04F101445FEA4810304400F0E4
:103C700019FB10EB08008046002CEED10222DFF881
:103C80002C0401685FEA4810304400F00BFB8146C9
:103C900019EB08090222DFF8240401685FEA4910E1
:103CA000304400F0FFFA82461AEB090A04229949CF
:103CB0005FEA4A10304400F0F5FA83461BEB0A0B2A
:103CC0000322DFF8FC135FEA4B10304400F0EAFAFD
:103CD00010EB0B008046002D02D001F0C9FB2860DC
:103CE000FFF737FF4046BDE8F28F2DE9F04100278E
:103CF0009F48006800286FD1DFF800030168491C65
:103D000001600468002C1CD1DFF8A013086800686B
:103D1000002807D0502080F31188BFF34F8FBFF3E6
:103D20006F8FFEE7D1F80080DFF8900302680A6029
:103D3000C0F80080DFF81C080168491C016000F031
:103D400028FBDFF81488D8F80000844238D3DFF865
:103D50005C1308680068002804D15FF0FF30C8F8E1
:103D600000002DE00868C068C068050068680600AB
:103D7000B44202D2C8F8006022E0281D08F047FCD7
:103D8000A86A002803D015F1180008F040FC5F492C
:103D90000A680123E86A83401A430A60291D5C4AC5
:103DA000EB6A1420434302EB030008F009FCE86AC5
:103DB00038490968C96A8842C9D301200700C6E7A3
:103DC000534934480068C26A142042438858022884
:103DD00007D30120070004E0DFF870070168491CE1
:103DE0000160DFF86C070068002801D0012007009F
:103DF0003800BDE8F08110B55D480068002804D0A7
:103E00000120DFF84C17086040E00020DFF8401781
:103E10000860DFF8484701F02BFB2060DFF840170F
:103E200008682268904207D21A480268536D2068D9
:103E3000C31808681B1A5365206808603348006877
:103E4000B0FA80F1D1F11F011422314B02FB01F0D5
:103E50001858002807D1502080F31188BFF34F8FE6
:103E6000BFF36F8FFEE702FB01F203EB0200426833
:103E700052684260426810F108039A4202D14268D7
:103E8000526842604068C068024A106010BD00007D
:103E9000587E0020487E0020F8B504000D00002C5C
:103EA00007D1502080F31188BFF34F8FBFF36F8F7E
:103EB000FEE7DFF8B476386810F11801200008F04A
:103EC0008BFB3868001D08F0A2FB002807D138687A
:103ED0000E490A680123C06A83409A430A6015F1BB
:103EE000010F05D13868011D754808F069FB07E02E
:103EF000DFF87C06006828180600300000F080F922
:103F0000F1BD0000647E0020747E0020607E0020F1
:103F100074760020847C002070B504000D00002C15
:103F200007D1502080F31188BFF34F8FBFF36F8FFD
:103F3000FEE7DFF83466306810F11801200008F061
:103F40003FFB3068001D08F062FB002808D1306894
:103F5000DFF818160A680123C06A83409A430A6092
:103F6000DFF80C060668AE19300000F049F970BDA4
:103F7000787E002038B50500E868C468002C07D1B9
:103F8000502080F31188BFF34F8FBFF36F8FFEE790
:103F900014F1180008F03BFBDFF8D8050068002892
:103FA00015D1201D08F033FBDFF8C0150A68012386
:103FB000E06A83401A430A60211DDFF8BC25E36AEA
:103FC0001420434302EB030008F0FAFA05E014F171
:103FD0001801DFF8A40408F0F3FADFF88C05006894
:103FE000C06AE16A884205D201200121DFF8742508
:103FF000116000E0002032BD04ED00E05C7E002096
:10400000002807D1502181F31188BFF34F8FBFF3F0
:104010006F8FFEE7DFF83C1509680160DFF8501587
:10402000096841607047F8B504000D00002C07D105
:10403000502080F31188BFF34F8FBFF36F8FFEE7DF
:10404000002D07D1502080F31188BFF34F8FBFF3AD
:104050006F8FFEE708F007FADFF814050668286896
:1040600010F1010F01D100271AE0DFF8E804006821
:104070002168884204D06068864201D301270FE09E
:104080006068301A2968884209D22968891B6068EB
:10409000411829602000FFF7B3FF002700E0012747
:1040A00008F0FBF93800F2BD000000004C7E002053
:1040B0000120DFF8B014086070470000507E002037
:1040C000987C002010B5040000F070F8DFF8A80418
:1040D00000680228F8D35FF080505A490860BFF3A7
:1040E0004F8FBFF36F8FEFE72DE9F04104000D0014
:1040F00016001F005FF00008B8F1100F0CD215F881
:10410000080004EB080181F8340015F808000028C5
:1041100002D018F10108EFE7002084F843000A2ECE
:1041200001D309200600E662E66400202065201D18
:1041300008F043FA14F1180008F03FFA2461D6F1B0
:104140000A00A0616462002060650020A065002074
:1041500084F85C00BDE8F08170B500240A2C09D217
:10416000DFF81404142101FB04F1084408F016FAE6
:10417000641CF3E7DFF80454280008F00FFADFF8B6
:104180000064300008F00AFABB4808F007FADFF8CC
:10419000F40308F003FADFF8F00308F0FFF9DFF8A2
:1041A000EC030560DFF8E803066070BD70B5DFF86A
:1041B000E4532868002822D0FFF7C5FCDFF8C46369
:1041C0003068002801D1012400E00024FFF7C1FC81
:1041D000002CECD108F047F9F068C668301D08F0F3
:1041E00016FADFF8B4030168491E01602868401E12
:1041F000286008F052F9300000F0C2F8D7E770BD2F
:1042000010B50400DFF8600301684C60DFF860134C
:1042100009688C4207D20068011DDFF8740300684A
:1042200008F0DAF90CE00068011DDFF860030068AF
:1042300008F0D2F9DFF8200301688C4200D2046054
:1042400010BD000004ED00E02DE9F84307000D006B
:10425000002D06D1380080B2800008F023FC060053
:1042600000E02E00002E0BD0602008F01BFC0400A4
:10427000002C01D0266304E0300008F077FC00E059
:104280000024002C0BD0380080B286005FF0A50817
:10429000D4F8309042463100484605F073FE2000C5
:1042A000BDE8F2832DE9F84304000D0016005FF02D
:1042B00000092868002855D02800416849684160F5
:1042C000416810F10802914202D141684968416099
:1042D0004068C0688046280041684968416041687C
:1042E00010F10802914202D141684968416040687A
:1042F000C06807005FEA4910275017F134005FEAF1
:10430000491121444860786C5FEA49112144886072
:104310005FEA491020440673F86A5FEA49112144B4
:1043200008613000C0B2032807D1B86A002804D061
:1043300002205FEA491121440873F86C5FEA4911D1
:1043400021444861786D5FEA491121448861386BE6
:1043500000F00BF85FEA49112144888319F1010943
:104360004745B8D14846BDE8F283010000200A78ED
:10437000A52A02D1491C401CF9E7800880B2704789
:1043800010B50400206B08F0F1FB200008F0EEFBF4
:1043900010BDDFF8F82110680068002805D15FF033
:1043A000FF30DFF8B421106007E01068C068C06813
:1043B00001004868DFF8A02110607047DFF8E001D5
:1043C0000068002801D1012007E0DFF8A80100689B
:1043D000002801D1022000E0002070472DE9F041C3
:1043E00004002500002C44D0DFF8B081E86AD8F83A
:1043F0000010C96A88423CD2A869002805D4D8F8C0
:104400000000C06AD0F10A00A861DFF86C611427CF
:104410006869E96A79433144884226D1281D08F049
:10442000F6F800280CD1E86A78433058002807D104
:10443000DFF870110A680123E86A83409A430A6032
:10444000D8F80000C06AE862DFF858110A68012352
:10445000E86A83401A430A60291DE86A07FB00F7EF
:1044600006EB070008F0ACF803E0D8F80000C06ADB
:10447000E862BDE8F0810000707C0020A44A0408D6
:1044800070B5040025000026002C50D0DFF80C0188
:104490000068854207D0502080F31188BFF34F8F0A
:1044A000BFF36F8FFEE7286D002807D1502080F3FF
:1044B0001188BFF34F8FBFF36F8FFEE7286D401E4B
:1044C0002865E86AE96C884231D0286D00282ED131
:1044D000281D08F09CF800280FD1DFF89C10EA6A2C
:1044E000142042438858002807D1DFF880100A685A
:1044F0000123E86A83409A430A60E86CE862E86A4C
:10450000D0F10A00A861DFF864100A680123E86AA4
:1045100083401A430A60291DDFF85C20EB6A1420EF
:10452000434302EB030008F04BF801200600300083
:1045300070BDDFF868100868002803D00868026DB5
:10454000521C02650868704700000000687E002069
:104550006C7E0020707E002030000020807E0020D5
:104560007C7E00206C7E0020487E0020607E002043
:104570005C7E0020787E002074760020487C00203D
:104580005C7C0020847C0020987C00204C7E0020F5
:10459000507E0020547E0020587E0020487E00205F
:1045A000647E0020607E002080B50121042008F098
:1045B000D1FB01214FF4807008F0EAFB01215FF488
:1045C000800008F0C7FB01214FF4807008F0FCFB6D
:1045D00000214FF4807008F0F7FB01BD1CB50320EB
:1045E0008DF8040000208DF8070008200090DFF807
:1045F0000C456946200008F009FC0420009069463B
:10460000200008F003FC13BD80B538208DF80000B1
:1046100008208DF8010000208DF8020001208DF89F
:104620000300684608F0B5FC01BD18B58FB0DFF88F
:104630009444200008F0F6FC200008F0D1FD00288A
:10464000FAD100200090DFF880040190DFF88404A4
:1046500002900020039002200490002005904FF467
:10466000806006904FF4006007904FF4005008906F
:104670004FF4807009905FF400300A9000200B9096
:1046800001200C9000200D9000200E906946200023
:1046900008F06AFD01221021200008F0ABFD012185
:1046A000200008F08BFD200008F09AFD0128FAD1C7
:1046B00010B010BD10B58AB0002006904FF47060A5
:1046C0000990002008905FF44030079006A808F099
:1046D0004DFE0020009001208DF8040001208DF88F
:1046E000050000200290002003900020049002208A
:1046F0008DF81400DFF808446946200008F010FE29
:10470000072301220D21200008F04FFE072302227B
:104710000C21200008F049FE0121200008F0E6FEEF
:104720000121200008F0D4FE0121200008F02FFE16
:104730000AB010BD80B5FFF737FFFFF776FFFFF730
:1047400063FFFFF74BFFFFF7B5FF01BD10B5DFF8C3
:10475000744300221021200008F04CFD00212000AD
:1047600008F02CFD200008F03BFD0028FAD1DFF80E
:1047700090430021200008F0B9FE0021200008F03D
:10478000A7FE0021200008F002FE10BD10B5DFF8E2
:10479000344301221021200008F02CFD01212000CB
:1047A00008F00CFD200008F01BFD0128FAD1DFF80D
:1047B00050430121200008F099FE0121200008F05B
:1047C00087FE0121200008F0E2FD200008F07BFEBA
:1047D00010BD10B50400200080B2212809DAFFF7CF
:1047E000B5FFA4B2610089B2B64808F0F5FCB7483D
:1047F000048010BD70B4002301248C421CD24D1ED5
:104800002A00A24216D330F8125000EB420636F8C6
:10481000026CB5420CD200EB420535F8025C2B006D
:1048200030F8125000EB420626F8025C20F81230F5
:10483000521EE6E7641CE0E770BC70472DE9F04FBC
:1048400091B004000D00160001A8402108F064FE9C
:1048500000275FF00008DFF87492B9F80000804587
:104860000CD29C4800EB88002100C9B230F811003E
:1048700001A921F8180018F10108ECE7B9F80000C7
:10488000012802D1BDF8040033E0B9F80000022885
:104890000AD1BDF80400BDF8061011FA80F002211B
:1048A00090FBF1F080B224E0B9F8001001A8FFF706
:1048B000A1FFB9F80090B9EB0509B9EB06095FEA69
:1048C0004900009001A800EB450A0DF1040B009A85
:1048D0005146584605F08AFB0021494506D201A8F9
:1048E00030F8110017FA80F7491CF6E7B7FBF9F02A
:1048F00080B211B0BDE8F08FF8B590B00600684600
:10490000402108F009FE00277048018802294ADB8F
:104910000088401E0400002005002800210080B20D
:1049200089B2884210D26B48290089B200EB81001D
:104930003100C9B200EB4100808869462A0092B27A
:1049400021F812006D1CE8E7210089B26846FFF7E4
:1049500051FF200080B2022190FBF1F201FB120016
:10496000002808D0200080B2022190FBF1F06946B7
:1049700031F810001CE0200080B2022190FBF1F021
:10498000694601EB400030F8021C200080B2022290
:1049900090FBF2F06A4632F81000411889B202200A
:1049A00091FBF0F004E04B483100C9B230F811003F
:1049B00080B211B0F0BD5349C0B231F81000704759
:1049C00000000000F8B52DED028B414801F0FDF824
:1049D000002528003D49098880B2884251D23D4EC9
:1049E000280080B236F820103B4801F0EEF89FED29
:1049F0003B8B03210C00280080B236F8200008F021
:104A00008FFD53EC182B07F0C5FB0022384B08F044
:104A100095FD05F06BFA00EE100A2100062000F06B
:104A2000ADFC304F3878062802DB2FA001F0CDF81E
:104A3000280080B206EB800041882C4801F0C5F8C0
:104A400003210C00280080B206EB8000408808F0AB
:104A500067FD53EC182B07F09DFB0022244B08F058
:104A60006DFD05F043FA00EE100A2100062000F06B
:104A700085FC3878062802DB1EA001F0A6F86D1C24
:104A8000A7E721A001F0A1F8BDEC028BF1BD38B57C
:104A90000C4C194D2900200008F0CFFB00280FD046
:104AA0002900200008F0F3FB0024022C08D220008B
:104AB000C0B2FFF721FF134921F81400641CF4E78A
:104AC00031BD0000106402404C2001404C00002029
:104AD000B0450408807900201C4A0408000000004A
:104AE000000004405100002020562C00244A0408F5
:104AF00000FEAF4020560000208000100008024059
:104B000000200140EC7D00200A0000002DE9F14F5B
:104B10002DED028B82B0B0EE408ADFF8E806D0E9D6
:104B2000004500260027CDE900675FF00008B5EEDC
:104B3000408AF1EE10FA0CD09FED940A28EE000A9C
:104B4000BCEEC00A10EE10BAFFF772F810EB0B0BB8
:104B500002E0FFF76DF88346022000F0F6FBDFF875
:104B6000A80600780028F7D0DFF8A096DDE900233A
:104B7000D9F80000002112184B415FF0FF305FF0C0
:104B8000FF318B4201D182420DD0D9F804000021BF
:104B9000321857EB01035FF0FF305FF0FF318B42BB
:104BA0000BD1824209D1DFF878060078022803DBB6
:104BB000DFF85C0601F009F83DE0DDE90023D9F8F3
:104BC0000000002110185941CDE90001DFF850A67E
:104BD0009AF80000052805DBD9F80010DFF8340644
:104BE00000F0F3FFD9F80400002136184F419AF87D
:104BF0000000052805DBD9F80410DFF81C0600F0DA
:104C0000E4FF18F10108DFF814060078012807D145
:104C100000200400002005000498C0E9004528E0B9
:104C2000FFF706F8584506D2FFF702F8BBEB000085
:104C3000B0F5FA7F90D2DDE90001424692B200233E
:104C400008F0A0FD040030003900424692B2002373
:104C500008F098FD0500DFF8C8050078062805DB98
:104C6000414689B2DFF8200600F0AFFF0498C0E9A2
:104C7000004502B0BDEC028BBDE8F18FDFF88C156A
:104C8000D1E90023C0E900237047F8B507F086F8A2
:104C90000020039000200290DFF888050190062094
:104CA000009000234FF48072DFF87C150FF245105E
:104CB000FEF764FD00200390002002900020019088
:104CC0000620009000238022DFF860150FF23D20BF
:104CD000FEF754FD0FF2DD300090052301224FF462
:104CE0007A71DFF84C0507F0CFFCDFF8A0150860FB
:104CF00005B000BD38B52DED028BB0EE408A012421
:104D0000DFF830552878002830D108F0CBFEFEF7C8
:104D10008FFF00EE100AB8EE400ADFF81C0580EDA8
:104D2000000A012028700020DFF8F0140870DFF876
:104D30000C0580ED008ADFF8E8542878042803DBAE
:104D4000DFF8FC0400F041FF0321B0EE480A042024
:104D500000F014FB2878042802DB6BA000F035FF7C
:104D6000DFF8C0040068FEF775FE0AE0DFF8B00463
:104D70000078022803DBDFF8180500F026FF00208A
:104D800004002000C0B2BDEC028B32BD00007A44AA
:104D900080B5DFF8A0040178012910D1002101704D
:104DA0000120DFF878140870DFF874040078042814
:104DB00003DBDFF8900400F008FF012009E0DFF8D2
:104DC00060040078022803DBDFF8C80400F0FDFE71
:104DD000002002BD0120DFF87C140870704700201D
:104DE000DFF870140870704780B5FFF7F8FFFFF721
:104DF000CFFF01BD2DE9F84185B00400DFF848047C
:104E0000D0E90023CDE900230020FEF79CFDDFF868
:104E100024542878002802D0012804D0F7E7002085
:104E2000FEF791FDF3E7DFF8140490ED000A02A805
:104E3000FFF76CFEDDE90201CDE90001DFF8E06378
:104E40003078042805DB019A0099DFF8000400F0AF
:104E5000BCFEFEF7EDFE00EE100ADFF8DC73B8EEE4
:104E6000400AD7ED000A30EE600A87ED000A002004
:104E700028703078042803DBDFF8D40300F0A5FEA7
:104E8000032197ED000ADFED920A80EE200A04204C
:104E900000F074FA3078042802DB1BA000F095FEC5
:104EA000DFF8B0030078012824D1DFF87003007820
:104EB000002801D1002500E0022502A800210022DF
:104EC000002380E80E0008266F460DF10808320026
:104ED0003900404605F08AF88DF81050092202A9E1
:104EE0004FF40C4008F0C4FD092202A94FF40C4015
:104EF00008F0CBFD0020C949087088E7D64A107039
:104F0000D64A11707047000020730000F8B52DEDEF
:104F1000028B0400D0480078002811D1BA4D00203F
:104F20002870BA4E012006F0C0FF3060022006F063
:104F3000BCFF706001202870012000F006FAE9E74C
:104F4000C64F387806F0B1FF06003878012802D045
:104F5000022808D00EE0B2480078042802DBC048DE
:104F600000F033FE06E0AE480078042802DBBD48BE
:104F700000F02BFEAA4D2878042804DB3200397893
:104F8000B94800F022FEB6F5000F1ED3B6F50006B4
:104F90009FEDB78B03210F00300008F0C1FA53ECEE
:104FA000182B07F0F7F85FF04042B04B08F0C6FA54
:104FB00053EC182B08F086FD04F098FF00EE100A61
:104FC0003900042000F0DAF91FE0D6F500069FED65
:104FD000A88B03210F00300008F0A2FA53EC182B25
:104FE00007F0D8F85FF04042A04B08F0A7FA0200A3
:104FF0000B0051EC180B08F023FE04F077FF00EED5
:10500000100A3900042000F0B9F92878042802DBDE
:10501000A1A000F0DAFD4FF4FA7000F096F979E7FC
:1050200010B52DED028B82B0B0EE408A7C4C20781A
:10503000042802DB904800F0C8FD0321B0EE480AC6
:10504000042000F09BF92078042802DB8BA000F0FC
:10505000BCFDB5EE408AF1EE10FA1EDD8B4C00204F
:10506000009000239FED1A0A28EE000AF7EE000ACE
:1050700080EE200ABCEEC00A10EE102A042120683F
:1050800007F02DFBFEF7D4FD002100910023020064
:105090000121206807F023FB08E000200090002396
:1050A000002203217948006807F019FB02B0BDEC2B
:1050B000028B10BD10B5040009F075F9012805D167
:1050C0000822524948F6014008F0D2FC10BD000009
:1050D00000007A4470B52DED028B4C480568466897
:1050E0002900674800F071FDB5F5000F1ED3B5F536
:1050F00000059FED5F8B03210C00280008F010FADB
:1051000053EC182B07F046F85FF04042574B08F07D
:1051100015FA53EC182B08F0D5FC04F0E7FE00EE6E
:10512000100A2100012000F029F91FE0D5F5000543
:105130009FED4F8B03210C00280008F0F1F953EC90
:10514000182B07F027F85FF04042484B08F0F6F9BB
:1051500002000B0051EC180B08F072FD04F0C6FEC3
:1051600000EE100A2100012000F008F93100454846
:1051700000F02BFDB6F5000F1ED3B6F500069FED2F
:105180003C8B03210C00300008F0CAF953EC182BBB
:1051900007F000F85FF04042344B08F0CFF953ECD1
:1051A000182B08F08FFC04F0A1FE00EE100A21007D
:1051B000012000F0E3F81FE0D6F500069FED2C8BF0
:1051C00003210C00300008F0ABF953EC182B06F06B
:1051D000E1FF5FF04042254B08F0B0F902000B0000
:1051E00051EC180B08F02CFD04F080FE00EE100AC4
:1051F0002100012000F0C2F827A000F0E6FCBDEC81
:10520000028B70BD4C4A0408067F00205C7D0020A4
:10521000D4E60308D4450408E0450408047F0020D0
:1052200051000020147E0020304004085C3B04083C
:1052300040400408037F00200C7E0020087E0020F0
:10524000B4250408402E0408544A04085C2E0408BF
:105250006C1D0408057F0020077F0020087F0020C8
:105260005C4A0408644A040824360408FFFF5F41CE
:105270000000000000000440F8450408207300000E
:10528000983B0408AC3B0408EC450408107E002061
:10529000703B0408843B04082056000010B4020050
:1052A00052B2002A09D50A01C44B040064B214F0BA
:1052B0000F04234403F8042C04E00A01C04B04004B
:1052C00064B21A5510BC7047BFF34F8FBD490A68CE
:1052D00012F4E062BC4802430A60BFF34F8F00BF84
:1052E000FDE710B50400601EB0F1807F01D30120FE
:1052F0000EE0601EB54908600F215FF0FF30FFF738
:10530000CDFF0020B24908600720B24908600020A4
:1053100010BDF8B55FF400315FF0006007F06DFE7E
:105320004FF4407007F030FE684607F05BFC0198D0
:105330004FF47A71B0FBF1F0FFF7D3FF0F215FF06C
:10534000FF30FFF7ABFF05B000BD10B50400012032
:10535000B4FBF0F0FEF7BBFA10BD00220100481EBE
:10536000002906D020210A0011004A1E0029FBD185
:10537000F4E7704780B5FFF7A7FF01BD70B52DEDCD
:10538000048B0400B0EE408A0D00934800782100A1
:10539000C9B288422DD3B5EE408AF1EE10FA06D597
:1053A00082A000F012FCBFEE000A28EE008AFCEE9C
:1053B000C88A18EE901A7EA000F007FCB8EE680AC2
:1053C00038EE409A00262800C0B2864211DAB2EECA
:1053D000040A29EE009ABCEEC90A10EE101A0A203F
:1053E000B1FBF0F200FB121172A000F0EEFB761C94
:1053F000E9E7BDEC048B70BD7FB50C24002501AE40
:105400002A002100300004F0BDFD0121202007F01A
:10541000B1FC4CF24F3002900020ADF806000020A5
:10542000ADF80C004AF6C770ADF804006B4E01A948
:10543000300008F0F1FF0121300009F0AAF9012243
:105440000121300009F099F937208DF80000012082
:105450008DF8030005208DF8010000208DF8020072
:10546000684607F096FD0121300009F01DF87FBD68
:1054700080B55A4809F007F80100594800884CF2F5
:10548000503202FB001002BD10B5544C0121200027
:1054900009F084F9002807D00121200009F095F9CE
:1054A0004F480188491C018010BD30B5A9B007A83C
:1054B0004C49D1E90023C0E90023FEF7BDFB05906C
:1054C0000598112804D30599474800F07EFB6AE04F
:1054D000464D06AA05992800FEF7B1FB0590444801
:1054E00000F073FB069800285AD00020049004981E
:1054F0000599884254D20498400128448069642167
:10550000A1FB0001069A002308F03CF90400002CDE
:105510001ED00499049A049B0498039449012944D9
:10552000898B02915101294409690191590129444A
:105530008968009107A940012844007B0B5C04980E
:105540004001284442682B4909A809F043F91CE0AE
:105550000499049A049B049849012944898B029177
:10556000510129440969019159012944896800912F
:1055700007A940012844007B0B5C049840012844A3
:1055800042681D4909A809F025F909A90AA000F0F7
:105590001CFB0A20FEF79BF90498401C0490A6E728
:1055A000164800F012FB29B030BD00002D000000AD
:1055B00025642E002564000025730A0018ED00E024
:1055C00000E400E00CED00E00400FA0514E000E067
:1055D00018E000E010E000E051000020001400405E
:1055E000E27E00209C4A0408441E0408986A0020B9
:1055F00090FD0308C82F0408E42F0408CCFD03081D
:105600002DE9FC4F83B00BB100241C6004462546F5
:1056100000E06D1C2878A0F10903052BF9D32028A0
:10562000F7D02D2816BF2B2815F8018B4FF02B082B
:10563000002A019103D4012A01D0252A03DB002985
:1056400047D00C6045E0002A0ADD102A04BF287804
:10565000302802BF687840F0200078280ED10AE098
:105660002878302818BF0A2208D1687840F0200036
:10567000782802D11022AD1C00E00822029500E03B
:105680006D1C28783028FBD04FF0000926A02E464C
:10569000CA468DF80000934607E09DF80070C71BCE
:1056A000CA46FFB20BFB09796D1C2978A1F14100B4
:1056B0001A2838BF203100BF1BA05A4609F0AAF8AB
:1056C0000028EAD10299A942484604D1019800B1C4
:1056D000046000201EE000BF1DA2AE1B12F80B10DC
:1056E000761A002E0FD405DCC71B03D3B7FBFBF1E2
:1056F000514508D0AFF30080049808B10121016042
:105700004FF0FF3003E0B8F12D0F08BF4042019980
:1057100001B10D6005B0BDE8F08F00E0000000238E
:105720000A2200216CE7000030313233343536373D
:1057300038396162636465666768696A6B6C6D6E4F
:105740006F707172737475767778797A00000000E3
:1057500000002115110E0D0C0B0B0A0A090909098D
:1057600009080808080808080707070707070707C0
:10577000070707070700000010B509F079F809F0DE
:1057800069F900F0B0FB0020DFF8A01708700020D6
:10579000DFF89C1708700020DFF898170860DFF822
:1057A00098170020087008780A280ADA0022DFF823
:1057B0008C370C78802044431A550878401C0870B8
:1057C000F1E7002008700878DFF87417087009F016
:1057D000E5F910BD2DE9F14300249DF800000328F0
:1057E0001FD004281DD008280ED00A2824D00D2848
:1057F00022D01B2847D0412845D0422843D05B28DF
:1058000041D07F2840F0C380DFF8280701680129D4
:1058100006DB0168491E0160032195A009F05BF9D0
:10582000C6E00020DFF80C1708600220DFF8FC1645
:10583000087001200400BBE0DFF8080700780D289D
:1058400003D19DF800000A281CD0DFF8E8562E6826
:10585000DFF8F476DFF8F486C146320039004846B6
:1058600004F0C4FB0020296808F80100002028602B
:105870000120DFF8B8160870012004000121A6A05D
:1058800009F029F994E0DFF8A8562878002803D019
:10589000022824D019D379E09DF800001B2802D1FA
:1058A0000120287010E0DFF88C0601687F290BDAF0
:1058B00001684A1C02609DF80000DFF88C265054F5
:1058C0000121684609F007F960E09DF800005B28B7
:1058D00002D10220287001E00020287056E09DF8D7
:1058E000000041280AD1DFF85806017809310A2260
:1058F00091FBF2F302FB131101700DE09DF8000023
:10590000422809D1DFF838060178491C0A2291FBA8
:10591000F2F302FB131101709DF80000412803D03F
:105920009DF8000042282FD1DFF808763868411E24
:105930003960002804D003214DA009F0CCF8F3E72A
:10594000DFF8F865DFF8F88598F80010802041430B
:1059500006EB010009F06AF93860396898F8002010
:105960008020424306EB020009F0B5F83F6898F842
:105970000010C9B2802041430E44DFF8CC853A00C4
:105980003100404604F032FB0020287010E0DFF8C0
:10599000A40501687F290BDA01684A1C02609DF8A2
:1059A0000000DFF8A42550540121684609F093F85F
:1059B0009DF80000DFF88C1508702000C0B2BDE82B
:1059C000F28338B5DFF86415087800284DD00878E0
:1059D000012843D100200870DFF87055280000F03E
:1059E00049F8280000F09AF8040014F1030F05D1DB
:1059F000DFF85C0500F0E9F8002037E014F1010F52
:105A00000DD100200400285D002801D1641CFAE7B4
:105A100005EB0401DFF83C0500F0D7F816E014F1BF
:105A2000020F04D1DFF8300500F0CFF80EE0102CA3
:105A300001D100201AE0142C01D1142016E0002C12
:105A400004D02100DFF8140500F0BFF832A000F008
:105A5000BCF8DFF8FC0400F0B8F806E0087802288B
:105A600003D100200870142000E0002032BD0000A7
:105A70000820080030B401000022885C002807D00C
:105A8000885C202802D0885C092801D1521CF4E7E8
:105A90001144087800283CD000200200802A0FD250
:105AA000885C00280CD0DFF89434DFF88C0404788C
:105AB0008020444303EB04008B5C8354521CEDE7CD
:105AC000802A0BD2DFF87434DFF86C04047880206D
:105AD000444303EB0400002383540CE0DFF85C3400
